:1000000084C00000BFC10000EAC1000015C20000AA
:1000100040C200006BC2000096C20000C1C20000D6
:10002000ECC2000017C3000040C3000069C3000019
:100030008BC0000089C0000087C0000085C00000A0
:1000400083C0000081C000007FC000007DC00000B0
:100050007BC0000079C0000077C0000075C00000C0
:1000600073C0000005C400006FC000006DC0000038
:100070006BC0000069C0000067C0000065C00000E0
:1000800063C0000061C000005FC000005DC00000F0
:100090005BC0000059C0000057C0000055C0000000
:1000A00053C0000051C000004FC000004DC0000010
:1000B0004BC0000049C0000047C0000045C0000020
:1000C00043C0000041C000003FC000003DC0000030
:1000D0003BC0000039C0000037C0000035C0000040
:1000E00033C00000D000AF00B200B500B800BB00C4
:1000F000BE00C100C400C700CA00720179018301BB
:100100008E019901A001AA01B50111241FBECFEFF4
:10011000D1E2DEBFCDBF00E00CBF12E0A0E0B2E054
:10012000EAECF9E000E00BBF02C007900D92A630A8
:10013000B107D9F722E0A6E0B2E001C01D92AC32CF
:10014000B207E1F711D43FC45BCF90E08B3091054B
:1001500020F5FC018827EE58FF4F8F4F2CC483E217
:1001600090E0089586E290E0089589E290E0089595
:100170008CE290E008958FE290E0089582E390E0B1
:10018000089580E091E0089583E091E0089586E08D
:1001900091E0089589E091E0089580E090E008956D
:1001A00080E290E00895CF93C62FCFDF009789F0CB
:1001B000C13039F018F0C23041F00BC0FC0111829F
:1001C00008C02FEFFC01218304C0FC0111822FEF36
:1001D0002283CF910895CF93DF93D62FC42FB5DF1D
:1001E000009779F1C13089F018F0C230D1F029C000
:1001F000FC01418121E030E002C0220F331FDA957B
:10020000E2F72095242321831CC0FC01418121E0D9
:1002100030E002C0220F331FDA95E2F7242B21834E
:1002200010C0FC01418121E030E002C0220F331FE9
:10023000DA95E2F7322F3095342331833281232B44
:100240002283DF91CF910895CF93C62F7EDF009751
:1002500011F0FC01C283CF910895CF93DF93D62F85
:10026000C42F73DF0097E9F0CC2319F0C13071F08F
:1002700018C0FC01428121E030E002C0220F331F90
:10028000DA95E2F72095242322830BC0FC014281FA
:1002900021E030E002C0220F331FDA95E2F7242B71
:1002A0002283DF91CF9108958FB780688FBF089523
:1002B000E82FF0E0EE0FFF1FE45FFD4F71836083D6
:1002C0000895CF93DF93C82FD62FEEDF8C2F90E0C9
:1002D0008830910508F053C0FC018827E358FF4F90
:1002E0008F4F69C3E89AE9E6F0E060816D2B608387
:1002F00046C0E99AE9E6F0E080816D2F660F660F4F
:10030000682B60833CC0EA9AE9E6F0E0808190E1E6
:10031000D99FB0011124682B608331C0EB9AE9E6C4
:10032000F0E0808190E4D99FB0011124682B6083B4
:1003300026C0EC9AEAE6F0E060816D2B60831FC076
:10034000ED9AEAE6F0E080816D2F660F660F682B6C
:10035000608315C0EE9AEAE6F0E0808190E1D99FD3
:10036000B0011124682B60830AC0EF9AEAE6F0E03E
:10037000808190E4D99FB0011124682B6083DF91C4
:10038000CF9108951F920F920FB60F9211240BB6C2
:100390000F922F933F934F935F936F937F938F931E
:1003A0009F93AF93BF93EF93FF93E0910C02F09173
:1003B0000D02309709F01995FF91EF91BF91AF9120
:1003C0009F918F917F916F915F914F913F912F916D
:1003D0000F900BBE0F900FBE0F901F9018951F929D
:1003E0000F920FB60F9211240BB60F922F933F93DB
:1003F0004F935F936F937F938F939F93AF93BF932D
:10040000EF93FF93E0910E02F0910F02309709F005
:100410001995FF91EF91BF91AF919F918F917F912E
:100420006F915F914F913F912F910F900BBE0F9065
:100430000FBE0F901F9018951F920F920FB60F923C
:1004400011240BB60F922F933F934F935F936F93AB
:100450007F938F939F93AF93BF93EF93FF93E0911D
:100460001002F0911102309709F01995FF91EF9168
:10047000BF91AF919F918F917F916F915F914F91BC
:100480003F912F910F900BBE0F900FBE0F901F90BA
:1004900018951F920F920FB60F9211240BB60F9260
:1004A0002F933F934F935F936F937F938F939F937C
:1004B000AF93BF93EF93FF93E0911202F091130279
:1004C000309709F01995FF91EF91BF91AF919F91EE
:1004D0008F917F916F915F914F913F912F910F90ED
:1004E0000BBE0F900FBE0F901F9018951F920F928A
:1004F0000FB60F9211240BB60F922F933F934F9389
:100500005F936F937F938F939F93AF93BF93EF937B
:10051000FF93E0911402F0911502309709F01995BC
:10052000FF91EF91BF91AF919F918F917F916F91CB
:100530005F914F913F912F910F900BBE0F900FBE87
:100540000F901F9018951F920F920FB60F921124C3
:100550000BB60F922F933F934F935F936F937F93BD
:100560008F939F93AF93BF93EF93FF93E091160206
:10057000F0911702309709F01995FF91EF91BF9113
:10058000AF919F918F917F916F915F914F913F912B
:100590002F910F900BBE0F900FBE0F901F901895CC
:1005A0001F920F920FB60F9211240BB60F922F933A
:1005B0003F934F935F936F937F938F939F93AF93EB
:1005C000BF93EF93FF93E0911802F09119023097D7
:1005D00009F01995FF91EF91BF91AF919F918F9184
:1005E0007F916F915F914F913F912F910F900BBE33
:1005F0000F900FBE0F901F9018951F920F920FB67D
:100600000F9211240BB60F922F933F934F935F934A
:100610006F937F938F939F93AF93BF93EF93FF93CA
:10062000E0911A02F0911B02309709F01995FF91A1
:10063000EF91BF91AF919F918F917F916F915F915A
:100640004F913F912F910F900BBE0F900FBE0F90C7
:100650001F9018951F920F920FB60F9211240BB690
:100660000F922F933F934F935F936F937F938F934B
:100670009F93AF93BF93EF93FF93E0910602F091A6
:1006800007021995FF91EF91BF91AF919F918F91C3
:100690007F916F915F914F913F912F910F900BBE82
:1006A0000F900FBE0F901F9018951F920F920FB6CC
:1006B0000F9211240BB60F922F933F934F935F939A
:1006C0006F937F938F939F93AF93BF93EF93FF931A
:1006D000E0910802F09109021995FF91EF91BF9105
:1006E000AF919F918F917F916F915F914F913F91CA
:1006F0002F910F900BBE0F900FBE0F901F9018956B
:100700001F920F920FB60F9211240BB60F922F93D8
:100710003F934F935F936F937F938F939F93AF9389
:10072000BF93EF93FF93E0910A02F0910B021995AA
:10073000FF91EF91BF91AF919F918F917F916F91B9
:100740005F914F913F912F910F900BBE0F900FBE75
:100750000F901F901895813099F028F08230E9F0C1
:10076000833041F10895E0ECF0E0158287E6848360
:1007700082E0808382818D7F828388E981830895EE
:10078000E8ECF0E0158287E6848382E08083828152
:100790008D7F828388E181830895E0EDF0E015820A
:1007A00087E6848382E0808382818D7F828388E1F3
:1007B00081830895E0E3F1E0158287E6848382E097
:1007C000808382818D7F828388E181830895613077
:1007D00049F028F0623071F06330A1F00895809301
:1007E000C6000895E8ECF0E0908195FFFDCF80937E
:1007F000CE000895E0EDF0E0908195FFFDCF80936D
:10080000D6000895E0E3F1E0908195FFFDCF80935D
:1008100036010895813049F028F0823071F083303C
:10082000A1F01BC08091C6000895E8ECF0E0808143
:100830008823ECF78091CE000895E0EDF0E0808110
:100840008823ECF78091D6000895E0E3F1E0808101
:100850008823ECF780913601089580E00895E82F11
:10086000F0E0EE0FFF1FE45EFD4F7183608308959B
:100870001F920F920FB60F9211240BB60F922F9367
:100880003F934F935F936F937F938F939F93AF9318
:10089000BF93EF93FF93E0911C02F0911D023097FC
:1008A00009F01995FF91EF91BF91AF919F918F91B1
:1008B0007F916F915F914F913F912F910F900BBE60
:1008C0000F900FBE0F901F901895CF93C82F41E047
:1008D000682F80E080DC40E06C2F80E0BEDCCF91B0
:1008E000089561E085E05FCC0895682F85E0ACCC89
:1008F00008950F931F93CF93C82F8B01843028F452
:1009000042E0682F83E067DC04C042E0682F84E0A7
:1009100062DC63E08C2FD5DCB8018C2FC9DCCF9171
:100920001F910F91089560E086E051CF089560E037
:1009300080E04DCF089560E081E049CF089560E008
:1009400082E045CF089560E083E041CF089560E004
:1009500084E03DCF089580E05DDFE82FF0E0E050D7
:10096000FE4F8081C2CF089580E0AFDF81E0ADDF30
:10097000B8DF63E974E080E0BCDF67E974E081E040
:10098000B8DF6BE974E082E0B4DF6FE974E083E024
:10099000B0DF63EA74E084E0ACDF67EA74E085E02E
:1009A000A8DF6BEA74E080E090E059DF80E0D3DEFE
:1009B00082E0D1DEFFCFEE0FFF1F881F8BBF0790B5
:0A09C000F691E02D1994F894FFCF92
:0609CA003F065B4F6600D2
:00000001FF
