:1000000084C00000BFC10000EAC1000015C20000AA
:1000100040C200006BC2000096C20000C1C20000D6
:10002000ECC2000017C3000040C3000069C3000019
:100030008BC0000089C0000087C0000085C00000A0
:1000400083C0000081C000007FC000007DC00000B0
:100050007BC0000079C0000077C0000075C00000C0
:1000600073C00000FBC300006FC000006DC0000043
:100070006BC0000069C0000067C0000065C00000E0
:1000800063C0000061C000005FC000005DC00000F0
:100090005BC0000059C0000057C0000055C0000000
:1000A00053C0000051C000004FC000004DC0000010
:1000B0004BC0000049C0000047C0000045C0000020
:1000C00043C0000041C000003FC000003DC0000030
:1000D0003BC0000039C0000037C0000035C0000040
:1000E00033C00000D000AF00B200B500B800BB00C4
:1000F000BE00C100C400C700CA00720179018301BB
:100100008E019901A001AA01B50111241FBECFEFF4
:10011000D1E2DEBFCDBF00E00CBF12E0A0E0B2E054
:10012000E8E9FEE000E00BBF02C007900D92A630A8
:10013000B107D9F722E0A6E0B2E001C01D92AE32CD
:10014000B207E1F771D6A6C65BCF90E08B30910580
:1001500020F5FC018827EE58FF4F8F4F93C683E2AE
:1001600090E0089586E290E0089589E290E0089595
:100170008CE290E008958FE290E0089582E390E0B1
:10018000089580E091E0089583E091E0089586E08D
:1001900091E0089589E091E0089580E090E008956D
:1001A00080E290E00895CF93C62FCFDF009789F0CB
:1001B000C13039F018F0C23041F00BC0FC0111829F
:1001C00008C02FEFFC01218304C0FC0111822FEF36
:1001D0002283CF910895CF93DF93D62FC42FB5DF1D
:1001E000009779F1C13089F018F0C230D1F029C000
:1001F000FC01418121E030E002C0220F331FDA957B
:10020000E2F72095242321831CC0FC01418121E0D9
:1002100030E002C0220F331FDA95E2F7242B21834E
:1002200010C0FC01418121E030E002C0220F331FE9
:10023000DA95E2F7322F3095342331833281232B44
:100240002283DF91CF910895CF93C62F7EDF009751
:1002500011F0FC01C283CF910895CF93DF93D62F85
:10026000C42F73DF0097E9F0CC2319F0C13071F08F
:1002700018C0FC01428121E030E002C0220F331F90
:10028000DA95E2F72095242322830BC0FC014281FA
:1002900021E030E002C0220F331FDA95E2F7242B71
:1002A0002283DF91CF9108958FB780688FBF089523
:1002B000E82FF0E0EE0FFF1FE45FFD4F71836083D6
:1002C0000895CF93DF93C82FD62FEEDF8C2F90E0C9
:1002D0008830910508F053C0FC018827E358FF4F90
:1002E0008F4FD0C5E89AE9E6F0E060816D2B60831E
:1002F00046C0E99AE9E6F0E080816D2F660F660F4F
:10030000682B60833CC0EA9AE9E6F0E0808190E1E6
:10031000D99FB0011124682B608331C0EB9AE9E6C4
:10032000F0E0808190E4D99FB0011124682B6083B4
:1003300026C0EC9AEAE6F0E060816D2B60831FC076
:10034000ED9AEAE6F0E080816D2F660F660F682B6C
:10035000608315C0EE9AEAE6F0E0808190E1D99FD3
:10036000B0011124682B60830AC0EF9AEAE6F0E03E
:10037000808190E4D99FB0011124682B6083DF91C4
:10038000CF9108951F920F920FB60F9211240BB6C2
:100390000F922F933F934F935F936F937F938F931E
:1003A0009F93AF93BF93EF93FF93E0910C02F09173
:1003B0000D02309709F01995FF91EF91BF91AF9120
:1003C0009F918F917F916F915F914F913F912F916D
:1003D0000F900BBE0F900FBE0F901F9018951F929D
:1003E0000F920FB60F9211240BB60F922F933F93DB
:1003F0004F935F936F937F938F939F93AF93BF932D
:10040000EF93FF93E0910E02F0910F02309709F005
:100410001995FF91EF91BF91AF919F918F917F912E
:100420006F915F914F913F912F910F900BBE0F9065
:100430000FBE0F901F9018951F920F920FB60F923C
:1004400011240BB60F922F933F934F935F936F93AB
:100450007F938F939F93AF93BF93EF93FF93E0911D
:100460001002F0911102309709F01995FF91EF9168
:10047000BF91AF919F918F917F916F915F914F91BC
:100480003F912F910F900BBE0F900FBE0F901F90BA
:1004900018951F920F920FB60F9211240BB60F9260
:1004A0002F933F934F935F936F937F938F939F937C
:1004B000AF93BF93EF93FF93E0911202F091130279
:1004C000309709F01995FF91EF91BF91AF919F91EE
:1004D0008F917F916F915F914F913F912F910F90ED
:1004E0000BBE0F900FBE0F901F9018951F920F928A
:1004F0000FB60F9211240BB60F922F933F934F9389
:100500005F936F937F938F939F93AF93BF93EF937B
:10051000FF93E0911402F0911502309709F01995BC
:10052000FF91EF91BF91AF919F918F917F916F91CB
:100530005F914F913F912F910F900BBE0F900FBE87
:100540000F901F9018951F920F920FB60F921124C3
:100550000BB60F922F933F934F935F936F937F93BD
:100560008F939F93AF93BF93EF93FF93E091160206
:10057000F0911702309709F01995FF91EF91BF9113
:10058000AF919F918F917F916F915F914F913F912B
:100590002F910F900BBE0F900FBE0F901F901895CC
:1005A0001F920F920FB60F9211240BB60F922F933A
:1005B0003F934F935F936F937F938F939F93AF93EB
:1005C000BF93EF93FF93E0911802F09119023097D7
:1005D00009F01995FF91EF91BF91AF919F918F9184
:1005E0007F916F915F914F913F912F910F900BBE33
:1005F0000F900FBE0F901F9018951F920F920FB67D
:100600000F9211240BB60F922F933F934F935F934A
:100610006F937F938F939F93AF93BF93EF93FF93CA
:10062000E0911A02F0911B02309709F01995FF91A1
:10063000EF91BF91AF919F918F917F916F915F915A
:100640004F913F912F910F900BBE0F900FBE0F90C7
:100650001F9018951F920F920FB60F9211240BB690
:100660000F922F933F934F935F936F937F938F934B
:100670009F93AF93BF93EF93FF93E0910602F091A6
:1006800007021995FF91EF91BF91AF919F918F91C3
:100690007F916F915F914F913F912F910F900BBE82
:1006A0000F900FBE0F901F9018951F920F920FB6CC
:1006B0000F9211240BB60F922F933F934F935F939A
:1006C0006F937F938F939F93AF93BF93EF93FF931A
:1006D000E0910802F09109021995FF91EF91BF9105
:1006E000AF919F918F917F916F915F914F913F91CA
:1006F0002F910F900BBE0F900FBE0F901F9018956B
:100700001F920F920FB60F9211240BB60F922F93D8
:100710003F934F935F936F937F938F939F93AF9389
:10072000BF93EF93FF93E0910A02F0910B021995AA
:10073000FF91EF91BF91AF919F918F917F916F91B9
:100740005F914F913F912F910F900BBE0F900FBE75
:100750000F901F901895813099F028F08230E9F0C1
:10076000833041F10895E0ECF0E0158287E6848360
:1007700082E0808382818D7F828388E981830895EE
:10078000E8ECF0E0158287E6848382E08083828152
:100790008D7F828388E181830895E0EDF0E015820A
:1007A00087E6848382E0808382818D7F828388E1F3
:1007B00081830895E0E3F1E0158287E6848382E097
:1007C000808382818D7F828388E181830895613077
:1007D00071F028F0623099F06330A1F00895E0ECF8
:1007E000F0E0908195FFFDCF8093C6000895E8EC7E
:1007F000F0E0908195FFFDCF8093CE000895809327
:10080000D6000895809336010895813049F028F08C
:10081000823071F0833079F016C08091C60008955F
:10082000E8ECF0E080818823ECF78091CE00089519
:100830008091D6000895E0E3F1E080818823ECF711
:1008400080913601089580E00895E82FF0E0EE0FE2
:10085000FF1FE45EFD4F7183608308951F920F9226
:100860000FB60F9211240BB60F922F933F934F9315
:100870005F936F937F938F939F93AF93BF93EF9308
:10088000FF93E0911C02F0911D02309709F0199539
:10089000FF91EF91BF91AF919F918F917F916F9158
:1008A0005F914F913F912F910F900BBE0F900FBE14
:1008B0000F901F901895CF93C82F41E0682F81E0CB
:1008C0008ADC40E06C2F81E0C8DCCF910895462F90
:1008D000682F81E0C2CC08950F931F93CF93C82F48
:1008E0008B01843028F442E0682F83E074DC04C07C
:1008F00042E0682F84E06FDC63E08C2FE2DCB8011B
:100900008C2FD6DCCF911F910F91089561E08AE082
:100910004ACC0895682F8AE097CC089541E060E0C2
:1009200085E059DC41E061E085E055DC40E060E0D5
:1009300085E093DC40E061E085E08FCC0895823073
:1009400049F441E060E085E088DC40E061E085E07A
:1009500084CC0895813049F440E060E085E07DDC9E
:1009600041E061E085E079CC089540E060E085E019
:1009700074DC40E061E085E070CC089562E085E0E1
:1009800026CF0895CF93C0912D02CC23B1F061E022
:1009900081E09DDF81E0D3DF2FEF8EE994E22150EB
:1009A00080409040E1F700C00000EC2FF0E0E05004
:1009B000FE4F8081AFDFC15079F72FEF8EE994E2CF
:1009C000215080409040E1F700C000008FE3A2DF9B
:1009D0002FEF8EE994E2215080409040E1F700C073
:1009E000000080E0ACDF60E080E071DF60E081E08B
:1009F0006EDF10922D0262E085E0E9DECF9108956E
:100A0000CF93C0912D02C11104C061E080E05FDF8F
:100A100044C0C23008F441C061E081E058DF81E0A9
:100A20008EDF13C02FEF8EE994E22150804090407A
:100A3000E1F700C00000EC2FF0E0E050FE4F8081B5
:100A400069DFCF5FC23071F711C02FEF8EE994E2FA
:100A5000215080409040E1F700C00000EC2FF0E012
:100A6000E050FE4F808156DFC15079F72FEF8EE9BD
:100A700094E2215080409040E1F700C0000080E007
:100A80005EDF60E080E023DF60E081E020DF81E086
:100A900080932D0262E09BDE03C082E050DFC2CF74
:100AA000CF910895CF93C0912D02C23040F461E000
:100AB00080E00DDF82E043DFC33078F509C0C3304A
:100AC00008F442C061E081E002DF81E038DF13C05A
:100AD0002FEF8EE994E2215080409040E1F700C072
:100AE0000000EC2FF0E0E050FE4F808113DFCF5F7D
:100AF000C33071F712C02FEF8EE994E2215080408D
:100B00009040E1F700C00000EC2FF0E0E050FE4F15
:100B1000808100DFC150C13071F72FEF8EE994E280
:100B2000215080409040E1F700C0000080E007DFE6
:100B300060E080E0CCDE60E081E0C9DE82E08093AE
:100B40002D0262E044DE03C082E0F9DEC1CFCF9126
:100B50000895CF93C0912D02C33040F461E080E04E
:100B6000B6DE82E0ECDEC43050F02EC0C43008F4B3
:100B700042C061E081E0ABDE81E0E1DE13C02FEF37
:100B80008EE994E2215080409040E1F700C00000DF
:100B9000EC2FF0E0E050FE4F8081BCDECF5FC43030
:100BA00071F712C02FEF8EE994E2215080409040FF
:100BB000E1F700C00000EC2FF0E0E050FE4F808134
:100BC000A9DEC150C23071F72FEF8EE994E22150B7
:100BD00080409040E1F700C0000080E0B0DE60E0BF
:100BE00080E075DE60E081E072DE83E080932D02BC
:100BF00062E0EDDD03C082E0A2DEC1CFCF910895B7
:100C0000CF93C0912D02C43040F461E080E05FDEFC
:100C100082E095DEC53050F02EC0C53008F442C0E9
:100C200061E081E054DE81E08ADE13C02FEF8EE9BF
:100C300094E2215080409040E1F700C00000EC2F8A
:100C4000F0E0E050FE4F808165DECF5FC53071F788
:100C500012C02FEF8EE994E2215080409040E1F7DE
:100C600000C00000EC2FF0E0E050FE4F808152DE2B
:100C7000C150C33071F72FEF8EE994E221508040CC
:100C80009040E1F700C0000080E059DE60E080E0C5
:100C90001EDE60E081E01BDE84E080932D0262E0D6
:100CA00096DD03C082E04BDEC1CFCF910895CF9394
:100CB00080E0ABDD80932C02C0912D02C81750F468
:100CC00061E080E004DE82E03ADE80912C02C81709
:100CD00070F021C08C1708F0A0C061E081E0F7DD62
:100CE00081E02DDE80912C028C1778F142C02FEF2D
:100CF0008EE994E2215080409040E1F700C000006E
:100D0000EC2FF0E0E050FE4F808104DECF5F809159
:100D10002C02C81760F32FEF8EE994E22150804037
:100D20009040E1F700C00000E0912C02F0E0E050BC
:100D3000FE4F8081EFDD2FEF8EE994E2215080405D
:100D40009040E1F700C0000053C02FEF8EE994E21D
:100D5000215080409040E1F700C00000EC2FF0E00F
:100D6000E050FE4F8081D6DDC15080912C028C175F
:100D700060F32FEF8EE994E2215080409040E1F73C
:100D800000C00000E0912C02F0E0E050FE4F8081B6
:100D9000C1DD2FEF8EE994E2215080409040E1F7D1
:100DA00000C0000025C02FEF8EE994E22150804062
:100DB0009040E1F700C00000EC2FF0E0E050FE4F63
:100DC0008081A8DDC15079F72FEF8EE994E22150A0
:100DD00080409040E1F700C000008FE39BDD2FEFE3
:100DE0008EE994E2215080409040E1F700C000007D
:100DF00080E0A5DD60E080E06ADD60E081E067DD45
:100E000080912C0280932D02882319F062E0DFDCB0
:100E100009C062E085E0DBDC05C081E090DDC11146
:100E2000C2CFD2CFCF91089580E045DD81E043DD90
:100E30006DDDE0912D02F0E0E050FE4F80816ADD33
:100E40006EEB74E080E048DD62EC74E081E044DD4C
:100E500060E075E082E040DD62E575E083E03CDD66
:100E600069EA75E084E038DD60E076E085E034DD55
:100E700055DD67E576E080E0E8DC80E06CDC82E070
:100E80006ADCFFCFEE0FFF1F881F8BBF0790F69124
:080E9000E02D1994F894FFCF46
:060E98003F065B4F6600FF
:00000001FF
