S021000041646D696E697374726174696F6E5F73797374656D5F4D43552E73726563F5
S11300007CC0000010C100003BC1000066C10000BC
S113001091C10000BCC10000E7C1000012C2000091
S11300203DC2000068C2000091C20000BAC20000D4
S113003083C0000081C000007FC000007DC00000BC
S11300407BC0000079C0000077C0000075C00000CC
S113005073C0000071C000006FC000006DC00000DC
S11300606BC0000069C0000067C0000065C00000EC
S113007063C0000061C000005FC000005DC00000FC
S11300805BC0000059C0000057C0000055C000000C
S113009053C0000051C000004FC000004DC000001C
S11300A04BC0000049C0000047C0000045C000002C
S11300B043C0000041C000003FC000003DC000003C
S11300C03BC0000039C0000037C00000F1C200008E
S11300D033C0000031C000002FC000002DC000005C
S11300E02BC00000C800A700AA00AD00B000B300F8
S11300F0B600B900BC00BF00C20011241FBECFEF80
S1130100D1E2DEBFCDBF00E00CBF12E0A0E0B2E060
S1130110E6E5F9E000E00BBF02C007900D92AA35B6
S1130120B107D9F722E0AAE5B2E001C01D92A038D8
S1130130B207E1F7AFD30DC463CF90E08B309105E4
S113014020F5FC018827EE58FF4F8F4FFAC383E256
S113015090E0089586E290E0089589E290E00895A1
S11301608CE290E008958FE290E0089582E390E0BD
S1130170089580E091E0089583E091E0089586E099
S113018091E0089589E091E0089580E090E0089579
S113019080E290E00895CF93C62FCFDF009789F0D7
S11301A0C13039F018F0C23041F00BC0FC011182AB
S11301B008C02FEFFC01218304C0FC0111822FEF42
S11301C02283CF910895CF93C62FB7DF009711F004
S11301D0FC01C283CF910895CF93DF93D62FC42F10
S11301E0ACDF0097E9F0CC2319F0C13071F018C0EE
S11301F0FC01428121E030E002C0220F331FDA9576
S1130200E2F72095242322830BC0FC01428121E0E4
S113021030E002C0220F331FDA95E2F7242B228349
S1130220DF91CF9108951F920F920FB60F92112470
S11302300BB60F922F933F934F935F936F937F93DC
S11302408F939F93AF93BF93EF93FF93E0916002DB
S1130250F0916102309709F01995FF91EF91BF91E8
S1130260AF919F918F917F916F915F914F913F914A
S11302702F910F900BBE0F900FBE0F901F901895EB
S11302801F920F920FB60F9211240BB60F922F9359
S11302903F934F935F936F937F938F939F93AF930A
S11302A0BF93EF93FF93E0916202F0916302309762
S11302B009F01995FF91EF91BF91AF919F918F91A3
S11302C07F916F915F914F913F912F910F900BBE52
S11302D00F900FBE0F901F9018951F920F920FB69C
S11302E00F9211240BB60F922F933F934F935F936A
S11302F06F937F938F939F93AF93BF93EF93FF93EA
S1130300E0916402F0916502309709F01995FF912C
S1130310EF91BF91AF919F918F917F916F915F9179
S11303204F913F912F910F900BBE0F900FBE0F90E6
S11303301F9018951F920F920FB60F9211240BB6AF
S11303400F922F933F934F935F936F937F938F936A
S11303509F93AF93BF93EF93FF93E0916602F09165
S11303606702309709F01995FF91EF91BF91AF9112
S11303709F918F917F916F915F914F913F912F91B9
S11303800F900BBE0F900FBE0F901F9018951F92E9
S11303900F920FB60F9211240BB60F922F933F9327
S11303A04F935F936F937F938F939F93AF93BF9379
S11303B0EF93FF93E0916802F0916902309709F09E
S11303C01995FF91EF91BF91AF919F918F917F917B
S11303D06F915F914F913F912F910F900BBE0F90B2
S11303E00FBE0F901F9018951F920F920FB60F9289
S11303F011240BB60F922F933F934F935F936F93F8
S11304007F938F939F93AF93BF93EF93FF93E09169
S11304106A02F0916B02309709F01995FF91EF9100
S1130420BF91AF919F918F917F916F915F914F9108
S11304303F912F910F900BBE0F900FBE0F901F9006
S113044018951F920F920FB60F9211240BB60F92AC
S11304502F933F934F935F936F937F938F939F93C8
S1130460AF93BF93EF93FF93E0916C02F0916D0211
S1130470309709F01995FF91EF91BF91AF919F913A
S11304808F917F916F915F914F913F912F910F9039
S11304900BBE0F900FBE0F901F9018951F920F92D6
S11304A00FB60F9211240BB60F922F933F934F93D5
S11304B05F936F937F938F939F93AF93BF93EF93C8
S11304C0FF93E0916E02F0916F02309709F0199555
S11304D0FF91EF91BF91AF919F918F917F916F9118
S11304E05F914F913F912F910F900BBE0F900FBED4
S11304F00F901F9018951F920F920FB60F92112410
S11305000BB60F922F933F934F935F936F937F9309
S11305108F939F93AF93BF93EF93FF93E0915A020E
S1130520F0915B021995FF91EF91BF91AF919F916B
S11305308F917F916F915F914F913F912F910F9088
S11305400BBE0F900FBE0F901F9018951F920F9225
S11305500FB60F9211240BB60F922F933F934F9324
S11305605F936F937F938F939F93AF93BF93EF9317
S1130570FF93E0915C02F0915D021995FF91EF9178
S1130580BF91AF919F918F917F916F915F914F91A7
S11305903F912F910F900BBE0F900FBE0F901F90A5
S11305A018951F920F920FB60F9211240BB60F924B
S11305B02F933F934F935F936F937F938F939F9367
S11305C0AF93BF93EF93FF93E0915E02F0915F02CC
S11305D01995FF91EF91BF91AF919F918F917F9169
S11305E06F915F914F913F912F910F900BBE0F90A0
S11305F00FBE0F901F901895813099F028F082302B
S1130600E9F0833041F10895E0ECF0E0158287E6EB
S1130610848382E0808382818D7F828388E98183E1
S11306200895E8ECF0E0158287E6848382E0808315
S113063082818D7F828388E181830895E0EDF0E0FB
S1130640158287E6848382E0808382818D7F828322
S113065088E981830895E0E3F1E0158287E68483E5
S113066082E0808382818D7F828388E18183089503
S1130670813049F028F0823071F0833079F016C06F
S11306808091C6000895E8ECF0E080818823ECF7BF
S11306908091CE0008958091D6000895E0E3F1E0C2
S11306A080818823ECF780913601089580E00895D5
S11306B01F920F920FB60F9211240BB60F922F9325
S11306C03F934F935F936F937F938F939F93AF93D6
S11306D0BF93EF93FF93E0917402F091750230970A
S11306E009F01995FF91EF91BF91AF919F918F916F
S11306F07F916F915F914F913F912F910F900BBE1E
S11307000F900FBE0F901F901895CF93C82F40E005
S113071060E081E061DD40E061E081E05DDD8FEC7F
S113072097E00197F1F700C0000041E062E081E04A
S113073053DD8FEC97E00197F1F700C000006C2FB8
S113074083E041DD8FE99FE00197F1F700C00000ED
S113075040E062E081E040DD8FE99FE00197F1F73E
S113076000C00000CF91089561E081E014DD61E0F4
S113077083E011DD2FEB8AED90E021508040904022
S1130780E1F700C0000088E3C0DF8FEC97E0019739
S1130790F1F700C000008CE0B8DF8FEC97E0019720
S11307A0F1F700C0000081E0B0DF8FE99FE001971E
S11307B0F1F700C0000086E0A8CF0895CF93C82FBA
S11307C041E060E081E008DD40E061E081E004DDDB
S11307D08FEC97E00197F1F700C0000041E062E080
S11307E081E0FADC8FEC97E00197F1F700C000009C
S11307F06C2F83E0E8DC8FE99FE00197F1F700C0FC
S1130800000040E062E081E0E7DC8FE99FE00197CF
S1130810F1F700C00000CF910895CF92DF92EF92DC
S1130820FF920F931F93CF93DF936C0180E1689F36
S113083070011124D0E0C0E0042F10E011C0203179
S113084031051CF4BBDFCF5F0BC02031310521F42F
S113085080EC5BDFDF5F04C0D13011F4AFDFCF5F2A
S1130860F601EC0FF11D8081882341F098012C0FD3
S1130870311D2E0D3F1D203231050CF3DF91CF9138
S11308801F910F91FF90EF90DF90CF90089581E03A
S11308903CCF089582E0B0DE67DF40E060E080E0B6
S11308A092E0BBDF2FEF89E698E121508040904031
S11308B0E1F700C00000EBDF61E080E06CDC2FEFCB
S11308C089E698E1215080409040E1F700C00000A3
S11308D082E0CEDE833001F128F4813079F0823079
S11308E0A1F0EDCF853031F1F0F0863041F7CFDF64
S11308F040E060E083E092E090DFE1CFC8DF40E0D9
S113090060E08FE092E089DFDACFC1DF40E060E0B1
S11309108EE192E082DFD3CFBADF40E060E08DE287
S113092092E07BDFCCCFB3DF40E060E08CE392E089
S113093074DFC5CFACDF40E060E08BE492E06DDFB4
S1130940BECFEE0FFF1F881F8BBF0790F691E02DDF
S10909501994F894FFCF96
S1130956484900454D455247454E435921210045D6
S11309666C657661746F7220696E20463100456C41
S1130976657661746F7220696E20463200456C6537
S11309867661746F7220696E20463300456C657615
S113099661746F7220696E20463400456C65766119
S10D09A6746F7220696E2046300061
S9030000FC
